:1000000009C016C015C015C013C012C011C010C061
:100010000FC00EC011241FBECFE9CDBF20E0A0E667
:10002000B0E001C01D92AE36B207E1F768D193C1CE
:10003000E7CF80916B00882321F0815080936B0083
:1000400096C086E080936B0080916D00813011F541
:1000500080916C00811139C0C0916A00D0E0CC0F52
:10006000DD1FCE018050904062D1893118F080931D
:100070006C0003C089E180936C00CE018F5F9F4FBD
:1000800056D1882319F0809369001FC081E08093C6
:1000900069001BC0823031F481E180936B001092C3
:1000A0006C0013C0833089F480916C0090916800DB
:1000B000911106C08F3F49F08F5F80936C0005C09F
:1000C0008A3118F0815080936C0021E032E086B7CD
:1000D00002C022E089B590916900922319F09091B5
:1000E0006C0001C090E040916700411108C0891781
:1000F00010F48F5F05C0981718F4815001C0892F44
:10010000223091F489BD811106C08FB5807C836057
:100110008FBDC19804C08FB5807C83628FBD89B5C7
:10012000981314C0315010C086BF811106C08FB51E
:10013000807383608FBDC09804C08FB5807383685F
:100140008FBD86B7981771F3223019F6809167003A
:1001500081111092670031110AC080916D008330C7
:1001600031F080916600811102C010926D00809183
:100170006500882321F0815080936500BFC086E030
:100180008093650080916600B29919C0811103C007
:100190009FE19093640090916400992319F091502D
:1001A00090936400823318F48F5F8093660080918F
:1001B0006600823359F581E08093630027C0823363
:1001C00040F081E080936200109264001092610020
:1001D00019C0843028F0809161008F5F80936100A6
:1001E0008091640090916100882311F0923039F47D
:1001F00010926400909360001092610003C08150DF
:1002000080936400109263001092660080916300F6
:100210008823E1F080916C0090916D0091110FC0E6
:10022000882379F093E090936D008F3F19F48093C9
:1002300068000CC0893151F41092680007C0811128
:1002400005C081E080936A0080936D008091620018
:100250008823B9F01092620080916D00833089F498
:1002600010926D0080916800809580936800809165
:100270006A0090E0880F991F60916C008050904058
:100280005DD0809160008823C9F1813069F490913C
:100290006C00911105C010926A0080936D002CC013
:1002A00082E080936D0028C0823031F590916C001F
:1002B000911106C080936A0081E080936D001CC09C
:1002C00080916D00811118C0809169008F5F8370EB
:1002D00019F08093690003C081E0809369008091E8
:1002E0006A0090E0880F991F609169008F5F9F4FAF
:1002F00025D081E08093670010926000189583E01C
:1003000087BB94E098BB8FBD82E083BF12BE16BE50
:1003100019BC89BF1BBE15BE80E888B913B814BAD2
:1003200016B810926D0010926C007894FFCFE1998E
:10033000FECF8EBBE09A99278DB30895262FE199C1
:10034000FECF1CBA8EBB2DBB0FB6F894E29AE19A91
:0A0350000FBE01960895F894FFCF48
:00000001FF
